:1000000000800020BD010000BD8800007588000050
:1000100075880000758800007588000075880000EC
:10002000758800007588000075880000BD88000094
:10003000BD8800007588000095A7000099A7000002
:10004000BD880000BD880000BD880000BD8800009C
:10005000BD880000BD880000BD880000BD8800008C
:10006000BD880000BD880000BD880000BD8800007C
:10007000BD880000BD880000BD880000BD8800006C
:10008000BD880000BD880000BD880000BD8800005C
:10009000E96B0000BD880000BD880000BD8800003D
:1000A000BD880000BD880000BD880000BD8800003C
:1000B000BD880000AD7B0000B97B0000BD7B000067
:1000C000C97B0000CD7B0000D17B0000BD88000013
:1000D000BD880000BD880000BD880000BD8800000C
:1000E000BD880000BD880000BD880000BD880000FC
:1000F000BD880000BD880000BD8800008197000019
:10010000BD8800007DB40000BD880000BD880000EF
:10011000BD880000BD880000BD880000BD880000CB
:10012000BD880000BD880000BD880000BD880000BB
:10013000BD880000BD880000BD880000BD880000AB
:10014000BD880000BD880000BD880000BD8800009B
:10015000BD880000BD880000BD880000BD8800008B
:10016000BD880000C99A0000BD880000BD8800005D
:10017000BD880000BD880000BD880000BD8800006B
:10018000BD880000BD880000BD880000BD8800005B
:10019000BD880000BD880000BD880000BD8800004B
:1001A000BD880000BD880000BD880000BD8800003B
:1001B000BD880000BD880000BD880000564B4CF291
:1001C000205210B51A804DF628121A8000BF00BFC9
:1001D00008F078FB514B4FF010621A60504A9A6059
:1001E000504ADA60504A136813F4807304D14F49BF
:1001F0000B604FF4A85313604D4B1A78110703D5C9
:100200001A7842F008021A704A4B4B492A221A7097
:100210004A4A4B4B8B4204D252F8040F43F8040B6A
:10022000F8E7484B484900228B4202D243F8042B9E
:10023000FAE74649464A002352F8230041F82300D2
:1002400001336F2BF8D1434B434A802103F8011B44
:100250009342FBD1414B3D4A1A60414B8A221A70AE
:10026000A3F5805324225A70A0221A709A7992071B
:10027000FCD59A79D406FCD43A4A937903F00C035E
:10028000082B384BF9D103221A7140225A719A79FE
:100290009006FCD5334A9179324B4906FBD5324A58
:1002A000324911600221516020221A709A7902F0BD
:1002B0000C020C2AFAD12E4B2E4A1A602E4B2F4AD2
:1002C0001A6000225A60072243F8042C2C4AC3F813
:1002D0000C2D62B608F02CFE144B1B68DA0705D50E
:1002E000284808F007FC284B284A1A60284B1B783E
:1002F0005B0609D5244C254B22689A4204D121483B
:1003000008F0F8FB0023236008F0E2FA0CF08AFD05
:100310000AF054FDFEE700BF0E2005403080044087
:10032000823F04000100002B10D0034014D0034092
:1003300002D0074000E007403894FF1F2829010041
:100340002087FF1F3894FF1F7CB3FF1F0082FF1F11
:100350000000000000E400E05FE400E008ED00E0E1
:100360000050064000400640448004400000030165
:1003700004800440C010050014E000E0FF76010096
:100380000000202078F0CB631CE00340A5C3945A02
:1003900000F00740FFFFFFFFFFFFFFFFFFFFFFFF32
:1003A000FFFFFFFFFFFFFFFFFFFFFFFFFFFFFFFF5D
:1003B000FFFFFFFFFFFFFFFFFFFFFFFFFFFFFFFF4D
:1003C000FFFFFFFFFFFFFFFFFFFFFFFFFFFFFFFF3D
:1003D000FFFFFFFFFFFFFFFFFFFFFFFFFFFFFFFF2D
:1003E000FFFFFFFFFFFFFFFFFFFFFFFFFFFFFFFF1D
:1003F000FFFFFFFFFFFFFFFFFFFFFFFFFFFFFFFF0D
:10040000FFFFFFFFFFFFFFFFFFFFFFFFDEF9FFFF23
:1004100010B5054C237833B9044B13B10448AFF33E
:1004200000800123237010BD3894FF1F00000000DE
:1004300024290100084B10B51BB108490848AFF347
:1004400000800848036803B910BD074B002BFBD0A0
:10045000BDE81040184700BF000000003C94FF1F9B
:10046000242901003894FF1F00000000F0B400F1BF
:100470005C061A4F00243146031F00F1BC0243F80A
:10048000044FB34241F8047F4FF0000542F8044F97
:10049000F5D10023124A134EC0F8205147F23054D0
:1004A0000121C0F82451C0F82851C0F82C51C0F8DF
:1004B0003C51C0F83461C0F87441C0F83021C0F834
:1004C0003821C0F8683180F8483180F8493180F827
:1004D0006031C0F87811F0BC704700BF0000A04048
:1004E000000048430000C8C20B7A022B37D0042B0F
:1004F00070B505460C460BD0012B00D070BD487A74
:100500008B7A03EB00200CF09BF8C5F8240170BD3A
:10051000CB7A887A4E7A03EB00200CF091F81249DE
:100520000CF0E2F845F82600637B207B667A03EB4B
:1005300000200CF085F80C490CF0D6F8013645F88F
:100540002600E37BA07B647A03EB00200CF078F8B4
:1005500005490CF0C9F8023445F8240070BDCB7A87
:10056000C0F86831704700BF6F12833A90F85001AD
:10057000704700BF90F84C01704700BF90F85401DD
:10058000704700BF90F85801704700BF182994BF0A
:1005900050F82100002070472DE9F0410B4E8046B5
:1005A000041F00F15C0754F8045F314628460CF044
:1005B00039FA30B1D8F8401128460CF051FA00B1A0
:1005C0002E46BC42EFD13046BDE8F081000020410C
:1005D0002DE9F041D0F840714FF00008041F00F100
:1005E0005C0654F8045F394628460CF039FA08498D
:1005F00048B128460CF016FA414620B128460CF0C6
:100600002FFA00B1A846B442EBD14046BDE8F081D4
:100610000000A0402DE9F047D0F8407182464FF02D
:100620000009041F00F15C064FF0000854F8045F55
:10063000394628460CF014FA0F4950B128460CF000
:10064000F1F930B1484629460BF046FF08F10108A0
:100650008146B442EAD1CAF86481B8F1000F02D1F0
:100660000020BDE8F08740460BF0EAFF014648460F
:100670000CF0EEF8BDE8F0870000A040D0F864016F
:10068000704700BFD0F82401704700BFD0F82401A4
:10069000704700BFD0F82401704700BF2DE9F84330
:1006A0004FF00008D0F84071C0F820818146041F47
:1006B00000F1300654F8045F394628460CF0D0F9B2
:1006C000084950B128460CF0ADF930B140462946F2
:1006D0000BF002FF8046C9F82001B442EAD140463F
:1006E000BDE8F8830000A04002299ABF00EB81001A
:1006F000D0F82401002070470F2998BF80F86011BE
:10070000704700BFD0F87801704700BFD0F868018B
:10071000704700BF90F84801704700BF90F849014A
:10072000704700BFC0F85C11704700BF80F84811E7
:10073000704700BFC0F84411704700BF80F84911EE
:10074000704700BF30B50F4CC0F8401183B0204651
:100750000D460AF099F920460AF096F928460BF062
:1007600019FB022502460B46009520460AF0E8F9DF
:1007700020460AF089F9204603B0BDE830400AF06F
:1007800083B900BFC089FF1FF8B500F5BF55064605
:100790000C3500F12C04204604F5BE74FFF766FE0C
:1007A000AC42F8D106F5D475012428460021FFF7A4
:1007B000BDFF214628460134FFF79EFF102C05F5AA
:1007C000BE75F2D141F2F47241F2F57741F2F6755D
:1007D0000023B354F3557355044C0549054A34615D
:1007E00000207061B161F2613046F8BD00007A44CA
:1007F000000048430000C8C270B500F5D47401255C
:1008000000262046FFF786FF28B12046FFF786FF27
:10081000064678B1012620460021FFF78FFF2946C2
:1008200020460135FFF768FF0F2D04F5BE74E8D1AF
:10083000304670BD20463146FFF778FF304670BD28
:10084000816270472DE9F041134E884600F5D4755A
:100850000124022702E001340F2C1AD02846FFF7AA
:1008600059FF05F5BE750028F5D0B3790A490B4844
:1008700034606FF30003F622B3713272F77186F8B9
:100880000980013407F032F8012008F003FB0F2C37
:10089000E4D1BDE8F08100BF5494FF1F5CAFFF1F9F
:1008A00041F2F8732DE9F041002200F5B35500F54F
:1008B000BF578046C2501035183700F5D47403E096
:1008C00004F5BE74AC420ED02046FFF723FF00288B
:1008D000F6D020463E68FFF7D1FE04F5BE743044E2
:1008E000AC423860F0D141F2F87358F80300BDE82B
:1008F000F08100BF012A70B50E4604460D6812D083
:100900004FF4BE7303FB05442C3420460121FFF74E
:100910000DFF20460121FFF711FF31462046BDE8BB
:100920007040FFF7E1BD06480AF0AEF829460448DA
:100930000AF0FEF80321034809F006FEE0E700BFD5
:10094000C089FF1FC00C01002DE9F043002383B0D4
:100950000646036000F5D474012504E00135102D2E
:1009600004F5BE7466D02046FFF7D4FE0028F5D00B
:100970004E4800F029FD29464D4800F025FD20464F
:10098000FFF78CFE0BF006FA02460B46494800F0D2
:100990001BFD2046FFF700FE80462046FFF718FEAD
:1009A000074640460BF0F6F98046384689460BF07C
:1009B000F1F942464B46CDE900013F4800F004FD05
:1009C00000212046FFF790FE012180462046FFF7D8
:1009D0008BFE074640460BF0DDF9804638468946D7
:1009E0000BF0D8F942464B46CDE90001334800F000
:1009F000EBFC2046FFF752FE014630680BF06CFD21
:100A000030602046FFF73EFEB1690CF00BF800287D
:100A100033D12046FFF73AFEF1690CF021F80028A7
:100A20009CD02046FFF732FE0135102DF06104F511
:100A3000BE7498D170680BF003FE014630680BF06D
:100A400007FF7169306004460CF00AF800B1746168
:100A5000316920460BF0E6FF00B134610B2008F04D
:100A6000E3F941F2F473F35C60B99BB141F2F473C2
:100A70000122F25403B0BDE8F0832046FFF702FEE6
:100A8000B061C6E753B941F2F4730022F25403B0E7
:100A9000BDE8F0830A4800F0C5FCE7E7094800F02C
:100AA000ABFC41F2F4730022F254F0E708130100AA
:100AB000C40C0100000D0100140D0100400D0100E7
:100AC0005C0D0100940D010070B5124B836000F5C0
:100AD000BF5506460C3500F5D47403E004F5BE742A
:100AE000AC4214D02046FFF715FE0028F6D0204671
:100AF000FFF752FDB1680BF095FF0028EED02046BD
:100B0000FFF74AFD04F5BE74AC42B060EAD1B068AC
:100B100070BD00BF0000A04070B5002300F5BF55B8
:100B20000646C3600C3500F5D47403E004F5BE74CA
:100B3000AC4214D02046FFF7EDFD0028F6D0204649
:100B4000FFF746FDF1680BF08BFF0028EED0204642
:100B5000FFF73EFD04F5BE74AC42F060EAD1F068E8
:100B600070BD00BF0068704741F2F073C058704715
:100B7000416070472DE9F04100F5BF5588461746A2
:100B80001E460C3500F5D47403E004F5BE74AC4287
:100B900014D02046FFF7BEFD0028F6D0204641467F
:100BA000FFF7C0FD20463946FFF7CCFD2046314611
:100BB00004F5BE74FFF7BEFDAC42EAD1BDE8F0819A
:100BC0002DE9F041284A294B426200F5BF550646FF
:100BD0004FF0000803620C3500F5D474002703E0E1
:100BE00004F5BE74A54211D02046FFF793FD0028FE
:100BF000F6D02046FFF74EFD1D490BF031FF88B9B6
:100C000004F5BE74A54207F10107EDD141F2F0737E
:100C1000F058C01B0BF014FD014640460BF018FEC7
:100C2000BDE8F0812046FFF735FD014640460BF058
:100C300053FC80462046FFF729FD316A0BF010FF78
:100C400060B92046FFF71EFD716A0BF0EBFE00282D
:100C5000C6D02046FFF716FD7062C1E72046FFF7B9
:100C600015FD3062EDE700BF00C0794400C079C4D3
:100C700000008CC2006A7047406A70472DE9F0415D
:100C800041F2F07300F5BF552E4600228046C25057
:100C900000270C35103600F5D47403E004F5BE745B
:100CA000AC421BD02046FFF735FD0028F6D0204689
:100CB000FFF7B0FC00210BF0D3FE0028EED0204659
:100CC000FFF7A8FC014638460BF006FC336804F534
:100CD000BE740133AC4207463360E3D141F2F07396
:100CE00058F803000BF0ACFC014638460BF0B0FDA1
:100CF000BDE8F0812DE9F04F80468FB08C488B46DF
:100D000000F00AFB8A4800F007FB894800F004FB6A
:100D100041F2F073404658F803200D92FFF7C0FDF2
:100D2000D8F804300C938146D8F800000BF032F864
:100D3000064640460F46FFF7A1FF82464046D8F8D8
:100D40000840D8F80C50FFF73BFF0BF023F8CDE933
:100D50000A01214628460BF0BDFB76490BF0C4FC86
:100D60000BF018F8CDE9080128460BF013F8CDE98F
:100D7000060120460BF00EF8CDE9040150460BF0B9
:100D800009F80D9A0C9BCDE90201CDE900671146E7
:100D900069484A4600F0C0FA4FF0010A644800F082
:100DA000BBFA08F5D478564607E00AF1010ABAF111
:100DB0000F0F08F5BE7800F093804046FFF7AAFCBD
:100DC0000028F2D04046FFF7D1FB4046FFF7D2FBA8
:100DD0004046FFF7D3FB4046FFF7D4FB08215748B6
:100DE00009F0B2FB5146564809F0A2FEBAF1090FCC
:100DF00003DC0121534809F0A7FB0221524809F006
:100E0000A3FB4046FFF74AFC0AF0C4FF5FFA8BF9E8
:100E100002460B46CDF80090494809F091FE0121A9
:100E20004A487718344609F08FFB012522E0062155
:100E3000474809F089FB2146414809F079FE022123
:100E4000444809F081FB31464046FFF79FFB0AF01A
:100E5000A1FFCDF8009002460B46394809F070FE1C
:100E600001213A4809F070FB182D3E460CD001379D
:100E7000013401356E1E0B2E35D0092CD7DC012133
:100E8000304809F061FBD2E72D4809F0FDFD09214A
:100E9000314809F059FB00214046FFF725FC0AF0D4
:100EA00079FF022402460B460094254809F048FECB
:100EB0000A212A4809F048FB4046FFF727FC002397
:100EC000014610221E4809F0F3FD0AF1010A1C48F0
:100ED00009F0DAFDBAF10F0F08F5BE787FF46DAFB7
:100EE0000FB0BDE8F08F164809F0CEFD092C4FF089
:100EF00006011748C3DD09F027FB2146104809F019
:100F000017FE0221134809F01FFB31464046FFF748
:100F10003DFB0AF03FFFCDF8009002460B46084823
:100F200009F00EFE0121094809F00EFB9FE700BF02
:100F30000813010000007A4444100100E41001008D
:100F4000C089FF1F94110100881F0100F0100100EB
:100F5000F410010084110100FC10010008110100CF
:100F60002DE9F04F85B000F5D4758A4603929B4673
:100F70002E464FF0010806E008F10108B8F10F0F06
:100F800006F5BE767BD03046FFF7C4FB0028F3D0D1
:100F900000230A225146874809F08AFD012186482C
:100FA00009F0D2FA03980AF0F5FE002302460093F6
:100FB00080480B4609F0C4FD01217F4809F0C4FABE
:100FC00059467C4809F0B4FD01217B4809F0BCFA80
:100FD0004146784809F0ACFD0121774809F0B4FAA0
:100FE00000244FF0020921463046FFF7CFFA0AF0FD
:100FF000D1FECDF8009002460B466E4809F0A0FDE8
:10100000013401216C4809F09FFA082C4FF00207C7
:10101000E9D100213046FFF767FB0AF0BBFE0097DD
:1010200002460B46634809F08BFD0121624809F036
:101030008BFA01213046FFF757FB0AF0ABFE009711
:1010400002460B465B4809F07BFD01215A4809F036
:101050007BFA39463046FFF747FB0AF09BFE0097C4
:1010600002460B46534809F06BFD08F10108514850
:1010700009F00AFDB8F10F0F06F5BE7683D14FF0E7
:1010800001084FF0000906E008F10108B8F10F0F60
:1010900005F5BE755DD02846FFF73CFB0028F3D070
:1010A00000230A225146454809F002FD0121424829
:1010B00008F012FA03980AF06DFECDF8009002468F
:1010C0000B463E4809F03CFD01213B4808F004FA7C
:1010D00059463A4809F02CFD0121374808F0FCF93F
:1010E0004146364809F024FD0121334808F0F4F95F
:1010F0000024022721462846FFF748FA0AF04AFE54
:10110000009702460B462D4809F01AFD01340121D3
:10111000294808F0E1F90D2C4FF00206EAD12846E3
:10112000FFF7F0FA0446012C4FF00001284613D0D7
:10113000FFF7DAFA0AF02EFE08F1010802460096DF
:101140000B461E4809F0FCFCB8F10F0F05F5BE7503
:10115000A1D105B0BDE8F08FFFF7C6FA0AF01AFE7C
:10116000009602460B46154809F0EAFC2146124853
:1011700008F0B2F921462846FFF7B6FA0AF00AFE4F
:10118000009602460B460D4809F0DAFC21460A4853
:1011900008F0A2F931462846FFF7A6FA0AF0FAFD50
:1011A000009602460B46054809F0CAFC034809F0C0
:1011B0006BFC69E7C089FF1F141101009489FF1FB0
:1011C000014B1870704700BFFC87FF1F0278002A90
:1011D00000F0908070B5034682B00D46252A2AD1D2
:1011E00058785C1C08B325282FD0732831D0642888
:1011F00024D0692822D066284FD07A2859D0782860
:1012000035D058282FD062283ED0422838D06C28BC
:1012100014D0632812D0742857D054285FD009F016
:1012200017FA6278631C002AD8D1344802B0BDE8AE
:10123000704009F029BC18781C46F0E72B1D29687E
:101240002E481D4609F074FCEBE7104609F000FA41
:10125000E7E72E6830460CF0D3FB014630460435F4
:1012600009F072F9DDE70221254809F06DF92E1D1C
:101270002968224800231022354609F019FCD0E7DE
:101280000221204809F060F92E1D29681B4800231F
:101290000222354609F00CFCC3E7073525F00705A7
:1012A0000321D5E9002315480091083509F048FCD1
:1012B000B7E7073525F007050021D5E900230F48DA
:1012C0000091083509F03CFCABE7296801290EBF05
:1012D0000D480E480121043509F036F9A1E72B68C5
:1012E000012B07BF04210A480A480521043509F0EB
:1012F0002BF996E7014809F0C7BB00BFC089FF1F63
:10130000181101001C11010020110100241101001D
:1013100028110100301101000FB400B583B004A9F9
:1013200051F8040B0191FFF751FF03B05DF804EB96
:1013300004B0704770B51B4B1B4C1B6882B00D4648
:101340000193019B23601946044600231646174863
:101350000A2209F0ADFB0321154809F0F5F8032C2A
:1013600007D8DFE804F01A1510020521114809F02A
:10137000EBF80221104809F0E7F831462846FFF75C
:1013800025FF02B070BD07210C4809F0DDF8F0E739
:1013900004210B4809F0D8F8EBE70521094809F0CA
:1013A000D3F8E6E704B1FF1F6494FF1FC089FF1F55
:1013B0003811010054110100841101004C11010089
:1013C000441101003C1101000FB400B5094B18781D
:1013D00083B020B103B05DF804EB04B0704705ABF7
:1013E0001A4604990193FFF7A5FF03B05DF804EBDB
:1013F00004B07047FC87FF1F0FB4094B00B51B7882
:10140000012B83B004D903B05DF804EB04B070473E
:1014100005AB1A46049901930120FFF78BFFF2E711
:10142000FC87FF1F0FB40B4B00B51B78032B83B059
:1014300004D903B05DF804EB04B0704705AB1A465D
:10144000049901930320FFF775FF03B05DF804EBE7
:1014500004B07047FC87FF1F30B4074D074C0849A4
:1014600000232B70236003654365836580F85C303F
:101470000B6030BC704700BF7094FF1F6C94FF1F5F
:101480006894FF1F70B5132007F0CEFCA8B1114E71
:10149000114B35881C6807F0DBFCADB22C44201AD8
:1014A00033880E4AC0EB00108000A0F634009BB2D7
:1014B000B0FBF3F39BB2138070BD074C07F0C8FC80
:1014C0002368044AC01A80B2108007F0C1FC206073
:1014D00070BD00BFC4AEFF1F28AFFF1F3CAFFF1F92
:1014E0000A4A0B49D06D936D03FB00F34FF47A70F9
:1014F00000FB03F0642310B50B600BF0A1F8054965
:10150000054C0BF0A5F9206010BD00BFE4ADFF1F36
:101510000888FF1FE4388E3E1CAFFF1F10B4019CEB
:10152000521AA4EB030412D0401A002C04FB00F062
:1015300002EBD27111DB00EB610101FB02F000282C
:1015400091FBF2F10B4414DB184610BC704704EB1E
:10155000D47003EB600010BC7047A0EB610000FB8F
:1015600002F1002990FBF2F01844EEDB013010BCD0
:101570007047581E10BC704710B5074C204609F044
:1015800083FA064B2046196809F0D2FA0321044871
:10159000BDE8104008F0D8BFC089FF1F1895FF1F95
:1015A0005C11010038B5044608460D460CF028FAD7
:1015B0002368024629465B68204698470546204630
:1015C00009F062FA284438BD2DE9F0414848494DF8
:1015D000494F4A4CFFF7A0FE494BDFF854E1494917
:1015E000494A4A485D601226494D1E70DF60002658
:1015F000484F1C61C3F818E0474C59614FF00C0E7E
:1016000046495A629862464A4648DD621E63464D24
:101610005F6340F61C460A279C63C3F854E041F21E
:101620000404DFF810E19964DA64022101221862EF
:10163000C3F8C45000204FF07C55DE661F67642657
:101640004FF496775C67C3F81CE03224C3F83CE0A3
:101650004FF05A0E597059721A729A6583F8400009
:10166000DE659F661F665C665D644FF47A7CC3F836
:1016700078E02E4FDFF8C0E0D867C3F88010C3F8D9
:10168000D420C3F88400C3F89C40C3F8AC40C3F82E
:10169000A80044F62068C3F8B420C3F8B810C3F813
:1016A000BC6083F8C820FF26052483F8C9204FF4C6
:1016B000FA7040F2D66283F8D81041F288311D6585
:1016C000C3F8A0C0C3F890E0C3F89470C3F88C804E
:1016D000C3F8B060A3F8C240A3F8CA00C3F89810DA
:1016E000A3F8C010A3F88820A3F88A20BDE8F081F1
:1016F0006011010020A1070066668640000040409E
:10170000E4ADFF1F33338340CDCCCC3D000082429B
:10171000000020C1000020420000A0409A997940BA
:101720000AD7233D333373409A99993E00C0204431
:10173000CDCC4C40CDCC4C3E0000684270B5464C00
:10174000464D4748E66800232B70FFF7E5F9014650
:1017500030460BF067F908B104232B704048FFF7BF
:10176000B3F921690BF05EF918B12B7843F010033F
:101770002B703B48FFF77EFAA16A0BF071F918B1A4
:101780002B7843F040032B70002335486B70FFF734
:1017900073FAE16A314E0BF045F908B10123737019
:1017A00000232F48EB70FFF7B7F905462C482B4E66
:1017B000FFF78AF9014628460AF08CFEE16B0BF030
:1017C0004FF908B10123F370264D254800232B70F3
:1017D000FFF7A2F9616A0646E0680AF07BFE01465F
:1017E00030460BF03DF908B104232B701C48FFF77D
:1017F0006BF9616A064620690AF06EFE01463046C2
:101800000BF010F918B12B7843F010032B7014482B
:10181000FFF730FAA16B0646A06A0AF05BFE0146AC
:1018200030460BF01DF918B12B7843F040032B70B4
:1018300000230B486B70FFF71FFAA16B0546E06AA7
:10184000084C0AF049FE014628460BF0EBF808B1B7
:101850000123637070BD00BFE4ADFF1FD0ADFF1F5B
:101860002C95FF1F7894FF1F2DE9F041844C2368CD
:10187000012B82B027D0022B00F09E80032B00F0BA
:10188000BE80EBB97F4B8048D3F8AC20D3F8B010C2
:101890000368891A002903FB01F37C49C0F2D18057
:1018A000323381FB0301D817C0EB6111002B1144C7
:1018B000C0F2DC80062002B0BDE8F04107F02EB98E
:1018C00002B0BDE8F081724E33680A33B3F57A7F17
:1018D00000F3C780184633600AF0B2FE6D490AF083
:1018E00003FF8046674DD5F8AC000AF0A9FE074615
:1018F000D5F8B0000AF0A4FE39460AF0EBFD4146E7
:101900000AF0F2FE64490AF0A3FF39460AF0E4FD4A
:101910000BF0B0F80146062007F000F902215F48FD
:1019200008F012FE5E4809F0AFF806215D4808F0A5
:101930000BFE30680AF084FE56490AF0D5FE0AF024
:1019400029FA022702460B460097554809F0F8F895
:101950000D21554808F0F8FDD5F8AC000AF070FEEE
:10196000804630680AF06CFE4A490AF0BDFE064621
:10197000D5F8B0000AF064FE41460AF0ABFD01461E
:1019800030460AF0B1FE44490AF062FF41460AF0CF
:10199000A3FD0AF0FFF900970B460246404809F004
:1019A000CFF839463D4808F0CFFD3D4809F06CF8C6
:1019B0002368022B7FF462AF354B324E00221A604F
:1019C000D6F8AC000AF03CFE0546D6F8B0000AF0A6
:1019D00037FE29460AF07EFD00210AF085FE2E49D9
:1019E0000AF036FF29460AF077FD0BF043F801466E
:1019F000062007F093F82368032B7FF442AF244BB3
:101A0000204E4FF47A721A60D6F8AC000AF018FE35
:101A10000546D6F8B0000AF013FE29460AF05AFD32
:101A20001D490AF061FE1C490AF012FF29460AF01E
:101A300053FD0BF01FF80146062007F06FF82368EE
:101A40001FE7323B81FB0310D917C1EB6011002B5C
:101A50000A4412DB511C062002B0BDE8F04107F039
:101A60005DB800234FF0000833603BE701390620E2
:101A700002B0BDE8F04107F051B811461AE700BFC7
:101A8000A494FF1FE4ADFF1F0888FF1F1F85EB51C3
:101A9000C0AEFF1FCDCCCC3D0000C842881F010066
:101AA000C089FF1F801101008811010070B5B54881
:101AB000B54C08F0E9FFB34808F0E6FFB14808F07C
:101AC000E3FF0D21B14808F03FFDD4F8A830012B09
:101AD00000F0B180AE4CAB48217800230A2208F018
:101AE000E7FF2378052B0BD8DFE813F0F100F600B1
:101AF000FB000001050106000721A64808F024FDAF
:101B00000221A54808F020FD122007F08DF90128D8
:101B100000F02081112007F087F9012800F02481CE
:101B20009E4B1B68012B00F0288102219A489C4C97
:101B300008F00AFD9B4B9348196808F0F9FF91489B
:101B400008F0A2FF0421984808F0FEFC0B2007F0E3
:101B50006BF9002301460A228A4808F0A9FF0C20ED
:101B600007F062F9002301460A22864808F0A0FF28
:101B7000142007F059F9002301460A22814808F091
:101B800097FF152007F050F90A22002301467D48EF
:101B900008F08EFF0621854808F0D6FC2368DD0793
:101BA0004FF001014CBF8248824808F0CDFC236809
:101BB00098074FF001014CBF7D487E4808F0C4FCF7
:101BC00023685A074FF001014CBF7948794808F063
:101BD000BBFC23681B074CBF75487648012108F001
:101BE000B3FC0421744808F0AFFC112007F01CF985
:101BF000002301460A22634808F05AFF102007F02C
:101C000013F9002301460A225E4808F051FF122012
:101C100007F00AF9002301460A225A4808F048FF53
:101C2000132007F001F9002301460A225548BDE8B8
:101C3000704008F03DBF0921604808F085FC60480D
:101C4000FEF742FF21690AF0EDFE002862D15C48F0
:101C5000FEF762FFE1680AF003FF002864D15848EC
:101C6000FEF75AFF05465648FEF72EFF0146284666
:101C70000AF030FCE16B0AF0F3FE00284FD1504827
:101C8000FEF79EFFA16A0AF0EBFE00283DD14C480A
:101C9000FEF796FFE16A0AF0C5FE002830D1494BF5
:101CA00047481B68012B00F0AF80FEF70DFF21694C
:101CB000354D0AF0D5FE00283BD10721424808F0F7
:101CC00043FC424B2F48196808F032FF18E7062101
:101CD0003F4808F039FC13E707213E4808F034FC80
:101CE0000EE707213C4808F02FFC09E708213B4894
:101CF00008F02AFC04E70B21394808F025FCFFE630
:101D00000D21384808F020FCC9E70C21364808F0BE
:101D10001BFCBCE70F21354808F016FC97E71121A2
:101D2000334808F011FCAAE70E21324808F00CFCF9
:101D300095E72348FEF7F0FEE9680AF073FE0028F5
:101D4000BBD0134B1B78052B6ED008212A4808F016
:101D5000FBFBB2E70E21294808F0F6FB112007F043
:101D600063F801287FF4DCAE0A21254808F0ECFB7B
:101D70000A4B1B68012B7FF4D8AE1121214808F0D3
:101D8000E3FBD2E6C089FF1FE4ADFF1F98110100FD
:101D9000D8ADFF1F70120100881F010008AFFF1FA0
:101DA00040AFFF1F8094FF1FA8120100B012010076
:101DB000B812010014230100BC120100A811010097
:101DC0002C95FF1FB494FF1F38120100B094FF1F21
:101DD00040120100481201005C120100641201006F
:101DE00050120100F8110100E8110100B4110100C6
:101DF000D4110100C41101002C120100781201005D
:101E00008812010094120100FEF75EFE216A0AF0BA
:101E100027FE002899D01621064808F095FB0A21D4
:101E2000054808F091FB48E70A21034808F08CFBBD
:101E300043E700BF08120100201201002DE9F04F16
:101E4000AB4CD4F88060012E8DB000F07981032E68
:101E500000F0CC80DFF8DC82A64FA74EE36FA748E6
:101E6000012B09BF3168316801F10041316006F092
:101E70005BFA3B68002B40F09F80A048DFF8B492EB
:101E800006F028FA3B68C8F800000546002B44D14C
:101E9000D4F88030964A012B53D0994928460AF04D
:101EA000DFFDC0B9974928460AF0BCFD98B9964AAB
:101EB000964B12680B920B9A1A60D4F8B4000AF091
:101EC000BFFB29460AF010FC0023C8F8000033606D
:101ED0000DB0BDE8F08FDFF830A28C4FDAF800309B
:101EE0000A930A983B68DFF85092C01A0AF0A4FBE4
:101EF00029460AF0F9FB86490AF0AAFC84490AF04F
:101F0000A7FCD9F800100AF0E7FADAF800300993D4
:101F1000099BC9F800003B60CFE709F03BFF0225B1
:101F200002460B4600957B4808F00AFE04217A48D9
:101F300008F00AFBD4F88030D9F800506C4A012B25
:101F4000ABD1764B1B68012B00F0DA81022BB4D1A8
:101F5000D2F88C7038460AF073FB29460AF062FD0D
:101F600040B978420AF06CFB29460AF079FD002856
:101F700000F0F981DFF890A1644FDAF800300793A0
:101F800007983B68DFF8B091C01A0AF055FB294664
:101F90000AF0AAFB5E490AF05BFC5D490AF058FCB6
:101FA000D9F800100AF098FADAF800300693069B88
:101FB000C9F800003B6080E7504806F08BF909F053
:101FC000E9FE022502460B460095524808F0B8FD8E
:101FD0000321534808F0B8FAD4F88C104D4808F0A3
:101FE000A7FD03214E4808F0AFFA46E74D4D4B4F91
:101FF0002B68DFF84081D3F884000F2101233B6078
:1020000006F020F93B683B4F012B3B6800F0BF8096
:10201000002B40F03D812B68DFF82091D3F884003D
:10202000436B19698EB2C9F8006005F08DFEB4F8F3
:102030008A2040F6E44303FB06F1B1FBF0F0801A7E
:1020400000B20AF0FDFA38492B4E8246D4F89000CF
:102050000AF04AFB014650460AF0FAFBD9F8003074
:102060003060632BDFF8D4A000F3068100233360D7
:102070003B68002B3FF4F2AE02212C4808F064FAD2
:102080002B68D9F80050D3F8840040F6E44303FBF2
:1020900005F505F059FEB5FBF0F00AF0CDFA05465E
:1020A000B4F88A000AF0CCFA014628460AF012FA7F
:1020B00009F070FE022502460B460095154808F00F
:1020C0003FFD2946194808F03FFA306809F062FEE2
:1020D000009502460B460F4808F032FD2946144889
:1020E00008F032FA2946114808F02EFAB6E600BF89
:1020F000E4ADFF1FA894FF1F2CAFFF1FE0AEFF1F32
:102100000000FA430000FAC304B1FF1FCCADFF1F6B
:1021100000007A44C089FF1F041301002488FF1FB8
:10212000C00C010050AFFF1FACC52737881F01004E
:1021300000130100D4ADFF1F1CAFFF1F58AFFF1FDE
:10214000DFF80883D4F88C70D8F8005038460AF0CD
:1021500077FA29460AF084FC48B178420AF070FA0E
:10216000014628460AF07CFC002840F00381A54D7A
:10217000A54F2A680223D2F884003B600E2106F0A6
:1021800061F83B68A14F012B3B687FF441AF002B06
:1021900040F0FA802B68DFF8B892D3F88400436BE4
:1021A00019691FFA81FBC9F800B005F0CDFDB4F83C
:1021B0008830974E40F6E44A0AFB0BFBBBFBF0F07D
:1021C000C01A00B20AF03CFA92498346D4F894004F
:1021D0000AF08AFA014658460AF03AFB2A68D9F80A
:1021E00000303060D2F884000AFB03FA05F0ACFD41
:1021F000B4F88830BAFBF0F00FFA80FAC3EB0A03A8
:10220000002BB4F8C220B8BF5B429342BCBF00238E
:1022100033603B68002B3FF421AE02217E4808F07A
:1022200093F92B68D9F80050D3F8840040F6E443C2
:1022300003FB05F505F088FDB4F88810B5FBF0F058
:1022400000B2411A754808F073FC0221724808F088
:102250007BF9306809F09EFD022502460B46009589
:102260006E4808F06DFC03216D4808F06DF92946B1
:10227000694808F069F9F1E52B68D3F8840005F0A6
:1022800063FDDAF8003064389842FFF4EFAEEFE611
:102290006248DFF8BC91DFF86CA108F0F5FB0C2177
:1022A000604808F051F90C215F4808F04DF92A68A0
:1022B0003B68D2F88400426B11698EB2C9F80060A5
:1022C000002B3FF4B2AE05F03FFD40F6E4410023A1
:1022D0000A2201FB06F1B1FBF0F1504808F0E8FBDF
:1022E00002214D4808F030F9B4F88A104B4808F044
:1022F0001FFCDAF80030D9F80060D3F8840094E6C7
:102300004A4928460AF0ACFB58B9494928460AF020
:1023100089FB30B9474A484B12680592059A1A6002
:10232000CBE5DFF810A1444FDAF8003004930498AD
:102330003B68DFF82091C01A0AF07EF929460AF0BE
:10234000D3F93E490AF084FA3C490AF081FAD9F8F7
:1023500000100AF0C1F8DAF800300393039BC9F8C3
:1023600000003B60A9E5334A334B12680892089A93
:102370001A60A2E5234D244F28683E604FF0FF32DB
:102380000F2105F05BFC3DE62448DFF8C4901D4EAC
:1023900008F07AFBD4F88030012B4FF00B010CBF12
:1023A0002748284808F0D0F80C211F4808F0CCF83E
:1023B0002A683B68D2F88400426B11691FFA81FBDE
:1023C000C9F800B0002B3FF4F0AE05F0BDFC40F6BC
:1023D000E44100230A2201FB0BF1B1FBF0F10F48AD
:1023E00008F066FB0121184808F0AEF8B4F8881030
:1023F0000A4808F09DFB3368D9F800B0D3F8840090
:10240000D3E600BF50AFFF1F2488FF1FA894FF1F13
:102410002CAFFF1FACC52737881F0100C089FF1FE5
:10242000EC120100F0120100DC1201000000FA437E
:102430000000FAC304B1FF1FCCADFF1F00007A44B7
:10244000C4120100D012010094110100D4ADFF1F8D
:1024500058AFFF1F1CAFFF1F2DE9F04F9D4D2B689C
:10246000012B85B000F0FF809B4C9C4F9C4E9D4DF6
:102470002B683BB99C4B1B680393039BB3F5FA5F36
:1024800000F2A180DFF8A882D4F88420924B012AC0
:1024900004D0D3F88020002A40F08F809348FEF7C4
:1024A00013FB9349D4F870A0D4F87490E56E0AF049
:1024B0001BF90AF005FBA36F00934A4653462946D1
:1024C00080B2FFF72BF8E56DD4F858A005FB00F0BB
:1024D0000AFB00F000EB800040000AF0B1F88549EB
:1024E0000AF0B6F98146306005FB0AF54FF47A70C0
:1024F00000FB05F00AF0A4F87E49DFF8E0A10546EC
:1025000048460AF0F1F829460AF0A2F97A490AF099
:10251000EBF80AF0AFFA6328386048DD28467549C1
:102520000AF096F964233060CAF80030D8F8003019
:10253000002B39D0D4F88030674D012B4BD0032BC2
:1025400000F0C180022B00F0B98002216B4807F037
:10255000FBFF6B4B186809F01DFC022402460B467A
:102560000094684808F0ECFA2146674807F0ECFF51
:102570002146624807F0E8FF3968624808F0D8FA57
:102580000621624807F0E0FF30685A490AF0ACF8CB
:1025900009F000FC009402460B465A4808F0D0FAB5
:1025A00003215B4807F0D0FF05B0BDE8F08F00289D
:1025B000BCBF0023CAF80030B8E7D6F80090DD6D44
:1025C000D3F858A090E7534B1B688BB1DFF86081BC
:1025D00001232B6058E7504B1B68012B4FF00A0179
:1025E0000CBF4E484E4807F0AFFFD5F88030A6E745
:1025F0003E48DFF83C81FEF767FA3D49D4F870B0F9
:10260000D4F874A0D4F86C900AF06EF80AF058FA76
:10261000A36F009349465B46524680B2FEF77EFFA9
:10262000E26DA36D386002FB00F003FB00F000EBED
:10263000800040000AF004F82E490AF009F9D8F8A1
:1026400000303060002BC3D002212C4807F07CFF03
:102650002C4808F019FA5921324807F075FF29482B
:1026600008F012FAB4E721481B4C1C4FFEF72CFA75
:102670001F49E66ED4F87090D4F874800AF034F8EC
:102680000AF01EFAA36F009331464B46424680B2D1
:10269000FEF744FFE26DA36D386002FB00F003FB20
:1026A00000F000EB8000400009F0CAFF11490C4E19
:1026B0000AF0CEF8002330602B60D8E607211A48D4
:1026C00007F042FF41E71021184807F03DFFD4F81A
:1026D000803037E710AFFF1FE4ADFF1F0888FF1FF2
:1026E0001CAFFF1F2895FF1F04B1FF1F2C95FF1F74
:1026F00000007A44E4388E3E0000C842881F010082
:10270000D4ADFF1FC089FF1F001301009C130100FF
:10271000A41301004CAFFF1F2488FF1F68130100A2
:10272000741301000C1301009413010080130100C5
:102730000088FF1F30B5112083B006F075FB01281B
:1027400018D0122006F070FB012813D000210B20B6
:1027500006F064FB00210C2006F060FB0021152030
:1027600006F05CFB2649274B0120002208701A6006
:1027700003B030BD0121152006F050FB224A234C46
:10278000234B1268D4F8981001921B68019A1D4DD2
:102790000B4493424FF00201296005D901210C201E
:1027A00006F03CFB03B030BDD4F8A00009F048FFB0
:1027B000184B19680AF036F90028EFD101210B20D7
:1027C00006F02CFB94F8C83003242C6043B10C4B6A
:1027D00002221A7000210C2006F020FB03B030BD4D
:1027E000122006F021FB012808BF054B4FF0110015
:1027F00008BF1C7006F018FB0128EBD1E7E700BF0B
:10280000D8ADFF1F2495FF1F04B1FF1FE4ADFF1FCC
:102810003CADFF1FD4ADFF1FF0B5684E684D346866
:102820002B689C4287B039D014F0010155D014F0C8
:10283000020149D014F004013DD0E3070ED52B6806
:10284000DF070BD45F4F3A68002A00F082805E4BAE
:102850001B680193019B93426DD83468A0070DD586
:102860002B6899070AD4594F3A68002A4CD0564B26
:102870001B680393039B934238D8346862070DD5D5
:102880002B685B070BD4524F3A68002A7ED04E4B20
:102890001B680593059B934268D834680CB107B058
:1028A000F0BD2146162006F039F92146172006F022
:1028B00035F907B0F0BD052006F030F92B68346813
:1028C00003F0FB032B60B8E7172006F027F92B680D
:1028D000346803F0FD032B60ACE7162006F01EF908
:1028E0002B68346803F0FE032B60A0E7394B1720F8
:1028F000D3F89C1006F012F92B68346843F00203F9
:1029000000222B603A60B9E7334808F0BDF80C218B
:10291000324807F019FE304808F0B6F8FF211720BA
:1029200006F0FCF8284B2E4A1968029102991268A9
:102930000A443A609CE7274B1620D3F89C1006F017
:10294000EDF82B68346843F0010300222B603A60F5
:1029500084E7FF21162006F0E1F81B4B204A196896
:102960000091009912680A443A6071E7194B0520FA
:10297000D3F89C1006F0D2F82B68346843F00403B7
:1029800000222B603A60002C89D18AE7124808F0B7
:102990007BF80C21134807F0D7FD0F4808F074F8B6
:1029A000FF21052006F0BAF8074B0D4A196804917B
:1029B000049912680A443A606AE700BF2495FF1F31
:1029C00040AFFF1FD0AEFF1F04B1FF1FD4AEFF1FEB
:1029D000D8AEFF1FE4ADFF1FC089FF1FA813010081
:1029E0001088FF1FB81301002DE9F047534EDFF8A0
:1029F00070813368DFF86C91D3F88400504D0F215B
:102A000005F020FC0023012222214E48C8F80030A6
:102A1000C9F8002007F098FDD8F80030132B20DC0F
:102A200040F6E4473368B5F888A0D3F88400436BD8
:102A30001C6905F089F9A4B2012107FB04F4B4FB79
:102A4000F0F441485444A5F8884007F07DFD642027
:102A500006F020FAD8F800300133132BC8F8003004
:102A6000E0DDB5F88830394A3948A2FB03129B1AD9
:102A700002EB5303C3F30F131946A5F8883008F08F
:102A800057F81D21334807F05FFD0221324807F057
:102A90005BFD2F4807F0F8FF32680023D2F884006E
:102AA000C8F800300E2105F0CDFB02232221254875
:102AB000C9F8003007F048FDD8F80030132B20DCAF
:102AC00040F6E4473368B5F88A90D3F88400436B46
:102AD0001C6905F039F9A4B2012107FB04F4B4FB29
:102AE000F0F419484C44A5F88A4007F02DFD642005
:102AF00006F0D0F9D8F800300133132BC8F80030B5
:102B0000E0DDB5F88A30114A1148A2FB03129B1A86
:102B100002EB5303C3F30F131946A5F88A3008F0EC
:102B200007F81D210D4807F00FFD02210A4807F0A4
:102B30000BFD0748BDE8F04707F0A6BF50AFFF1FE9
:102B4000E4ADFF1FC81301000C1401008761188653
:102B5000C089FF1FEC130100881F01001014010041
:102B60008894FF1F2488FF1FF8B5C04FD7F8B830EE
:102B7000072B00F09F81BE4BBE4C1B68786D40F266
:102B8000513108222160E271002B00F0698109F0C7
:102B900057FD396A054609F0A7FDB74909F0A4FDBC
:102BA00009F08EFF80B203126372B44AB44B12680C
:102BB0001B68B9692072A37228461B121512E372B2
:102BC0002273657309F090FDAB4909F08DFD09F0A2
:102BD00077FF83B21A12A749AA48A373E27304F0DD
:102BE00085FEA94BA94A1B681288A249A272DDB2D0
:102BF000257205EB850603EB8305760045F3D715B3
:102C000040F2553E12121B122673657308260025EA
:102C10009C48C4F800E0E2726372E671A573E57344
:102C200004F064FE40F2563399482360E671FDF7E4
:102C300099FF984909F058FD09F042FF2072944825
:102C4000FDF790FF934909F04FFD09F039FF924AD3
:102C50009049C0F307231068637209F0F9FD09F089
:102C600009FF40FA06F203468948E272A372FDF7B3
:102C7000A7FF814909F038FD09F0FCFE2073844864
:102C8000FDF79EFF7C4909F02FFD09F0F3FE79491D
:102C9000A57340F307237B486373E57304F026FEB6
:102CA000022006F0F7F87D4A7D4B117850782172AA
:102CB00091786072D2789878A172597893F800E090
:102CC000E2726173DA78A07340F25A3369496D4851
:102CD00084F80CE0E2732360E67104F007FE714BA8
:102CE00064491A785878227260729A78D878A272F9
:102CF000E0721A79987993F805E02273A073DA7973
:102D0000604884F80DE040F25E33E2732360E671C0
:102D100004F0ECFD022006F0BDF8634B55491A782B
:102D20005878227260729A78D878A272E0721A7912
:102D3000987993F805E02273A073DA79514884F802
:102D40000DE04FF45C73E2732360E67104F0CEFD96
:102D5000022006F09FF840F273334D482360E6717D
:102D6000FDF7B2FE514909F0BFFC09F0A9FE20723F
:102D70004748FDF7A9FE4D4909F0B6FC09F0A0FE51
:102D8000C0F3072342486372FDF7C6FE474909F0C6
:102D9000ABFC09F095FEA0723D48FDF7BDFE43492E
:102DA00009F0A2FC09F08CFEC0F307233848E37257
:102DB000FDF762FF3E4909F08FFB09F081FE2073A9
:102DC0003348FDF759FF3A4909F086FB09F078FED0
:102DD000C0F307232E486373FDF74CFF344909F015
:102DE0007BFB09F06DFEA0732948FDF743FF3049D6
:102DF00009F072FB09F064FE1E49C0F30723214865
:102E0000E37304F073FD022006F044F8B96DFB6D26
:102E1000022211FB03F3C3F3072740F27931104676
:102E20002160E2712372677206F034F840F2723367
:102E300017482360E671FDF797FE20721448FDF7EE
:102E400093FE40FA06F3A5726372E572257365730B
:102E5000A573E57307490B48BDE8F84004F046BD8B
:102E600009F0EEFB7969054695E600BFE4ADFF1F6A
:102E7000B494FF1F8C94FF1F0000204134AFFF1F4C
:102E8000A094FF1F5CAFFF1F0888FF1F0E88FF1F65
:102E90002C95FF1F0000C842D4ADFF1FD0ADFF1F0F
:102EA0007894FF1F3488FF1F3C88FF1F00007A447E
:102EB00033938843664C674840F2593501234E22CC
:102EC000214625602373082500235026A273237210
:102ED0006372A372E372E3736673E57104F006FD37
:102EE000022005F0D7FF5C4BE5711B68786D40F25E
:102EF00051322260002B40F09B8009F0A1FB7969E0
:102F000009F0F2FB554909F0EFFB09F0D9FD80B259
:102F100040FA05F320726372514B524A1B681268E3
:102F20004B49A372002516121B124A48E372227302
:102F30006673A573E57304F0D9FC022005F0AAFFBF
:102F4000494A4A4B12681B884149227216121F12C5
:102F500040F2553266723F4822600826A3722573FC
:102F60006573A573E573E671E77204F0BFFC022098
:102F700005F090FF40F256333D482360E671FDF7BF
:102F8000F1FD3C4909F0B0FB09F09AFD2072384888
:102F9000FDF7E8FD374909F0A7FB09F091FD364A36
:102FA0003449C0F307231068637209F051FC09F03B
:102FB00061FD40FA06F203462D48E272A372FDF766
:102FC000FFFD264909F090FB09F054FD20732848C5
:102FD000FDF7F6FD214909F087FB09F04BFD1C497F
:102FE000A57340F307231B486373E57304F07EFC6D
:102FF000022005F04FFF02264FF45772C0231449F8
:103000001448226023726572E67104F06FFC30464A
:1030100005F040FF40F25E35184B194AE671256015
:10302000227263720A490B48BDE8F84004F05EBCA6
:1030300009F006FB396A09F057FB084909F054FB0F
:1030400009F03EFD80B203122072637264E700BF94
:103050008C94FF1F5CAFFF1FB494FF1F0000204142
:10306000A094FF1F34AFFF1F0888FF1F0E88FF1FAB
:103070002C95FF1F0000C842D4ADFF1F3014010083
:10308000201101002DE9F041874C884D82B007F0F6
:10309000F5F923682860042B00F0F982022B4BD04D
:1030A000082B00F09280072B40F02481332801F098
:1030B000C78500F37783312801F0D585322840F0A9
:1030C0008D8007F017FA002840F312817848794E76
:1030D00007F070FE09F0B4FA774909F005FB6123A7
:1030E0000122F06322602B601846A0F152031F2BCF
:1030F00001F29C85DFE813F0980D9A0D9A0D9A0D58
:103100009A0D9A0D9A0D9A0D9A0D9A0D9A0D9A0D87
:103110009A0D9A0D9A0D9603020F1005AC057A04CC
:103120009A0D9A0D9A0D0A049A0DFF0E9A0D9A0D9A
:103130009A0D9A0D9A0D860DA0F13102422A4DD8B2
:10314000DFE812F02E089508A3083A084D085C083D
:10315000690878084C004C004C004C004C004C00B6
:103160004C004C004C004C004C004C004C004C00FF
:103170004C004C004C004C004C004C004C004C00EF
:103180004C004C004C004C004C004C004C004C00DF
:103190004C004C004C004C004C004C004C004C00CF
:1031A0004C004C004C004C0085084C004C004C007E
:1031B0004C004C004C004C004C004C004C004C00AF
:1031C0004C004C0036034C008B08322800F0F5828E
:1031D000712800F0ED82312800F00583002B08BF34
:1031E00073280CBF01200020002859D0304807F078
:1031F0004BFC0F21314807F0A7F92D4807F044FC9C
:1032000010212F4807F0A0F9294807F03DFC1321B1
:103210002C4807F099F92C4B2548196807F088FCD1
:10322000234807F031FC1421284807F08DF9204885
:1032300007F02AFC1E21264807F086F91C4807F0F3
:1032400023FC1521234807F07FF9194807F01CFCDF
:103250001E21214807F078F9154807F015FC2021B8
:103260001E4807F071F9124807F00EFC19211C489E
:1032700007F06AF90E4807F007FC1221194807F019
:1032800063F90B4807F000FC0D21174807F05CF9C3
:10329000074807F0F9FB154A00210123116023605C
:1032A00002B0BDE8F08100BF54AFFF1F28ADFF1F83
:1032B000C089FF1FE4ADFF1F6F12833A101E01008B
:1032C000201E0100341E01002088FF1F481E01003F
:1032D000601E0100801E0100981E0100B81E010042
:1032E000DC1E0100F81E01000C1F01000088FF1FFA
:1032F00023682868062B40F08F80A0F13002412A15
:103300003FF66CAF01A151F822F000BFB13F0000C1
:10331000E53F0000114000003D4000006340000018
:10332000894000009D400000C1400000DD310000E8
:10333000D5400000DD310000DD310000DD3100004E
:10334000DD310000DD310000DD310000DD31000045
:10335000DD310000DD310000DD310000DD31000035
:10336000DD310000DD310000DD310000DD31000025
:10337000DD310000DD310000DD310000DD31000015
:10338000DD310000DD310000DD310000DD31000005
:10339000DD310000DD310000DD310000DD310000F5
:1033A000DD310000DD310000DD310000DD310000E5
:1033B000DD310000DD310000DD310000DD310000D5
:1033C000DD310000DD310000DD310000DD310000C5
:1033D000DD310000DD310000DD310000DD310000B5
:1033E000DD310000DD310000DD310000DD310000A5
:1033F000DD310000DD310000DD310000DD31000095
:10340000DD310000DD310000DD310000DD31000084
:10341000B137000023682868052B40F08D80A0F1AB
:103420003102402A3FF6DAAE01A151F822F000BF86
:10343000833D0000F73E0000BB3E0000DB3E000085
:10344000773E0000A13E0000DD310000DD310000CC
:10345000DD310000DD310000DD310000DD31000034
:10346000DD310000DD310000DD310000DD31000024
:10347000DD310000DD310000DD310000DD31000014
:10348000DD310000DD310000DD310000DD31000004
:10349000DD310000DD310000DD310000DD310000F4
:1034A000DD310000DD310000DD310000DD310000E4
:1034B000DD310000DD310000DD310000DD310000D4
:1034C000DD310000DD310000DD310000DD310000C4
:1034D000DD310000DD310000DD310000DD310000B4
:1034E000DD310000DD310000DD310000DD310000A4
:1034F000DD310000DD310000DD310000DD31000094
:10350000DD310000DD310000DD310000DD31000083
:10351000DD310000DD310000DD310000DD31000073
:10352000DD310000DD310000DD310000DD31000063
:10353000173F000023682868032B40F0A480A0F107
:103540003002422A3FF64AAE01A151F822F000BFF4
:103550005D36000097480000BF480000E7480000C3
:10356000094900002B490000534900008D49000023
:103570004B4800006F480000DD310000DD310000E5
:10358000DD310000DD310000DD310000DD31000003
:10359000DD310000DD310000DD310000DD310000F3
:1035A000DD310000DD310000DD310000DD310000E3
:1035B000DD310000DD310000DD310000DD310000D3
:1035C000DD310000DD310000DD310000DD310000C3
:1035D000DD310000DD310000DD310000DD310000B3
:1035E000DD310000DD310000DD310000DD310000A3
:1035F000DD310000DD310000DD310000DD31000093
:10360000DD310000DD310000DD310000DD31000082
:10361000DD310000914A000027430000AF4A00005E
:10362000CD4A0000D7470000F5470000DD4200000A
:1036300001430000DD310000454A0000674A0000F8
:10364000AB490000DD310000DD310000DD3100005C
:10365000DD310000CB490000114A000006F04AFFAE
:10366000002841F3E682CF48CF4E07F0A3FB0127A5
:10367000034601466222CD48B36527602A60FDF704
:1036800077FA23682868012B7FF4A8AD2DE5A0F117
:103690003102402A3FF6A2AD01A151F822F000BF4D
:1036A000FF400000174100001B41000041410000A5
:1036B000854100006F41000081410000454100004C
:1036C00049410000DD310000DD310000DD31000046
:1036D000DD310000DD310000DD310000DD310000B2
:1036E000DD310000DD310000DD310000DD310000A2
:1036F000DD310000DD310000DD310000DD31000092
:10370000DD310000DD310000DD310000DD31000081
:10371000DD310000DD310000DD310000DD31000071
:10372000DD310000DD310000DD310000DD31000061
:10373000DD310000DD310000DD310000DD31000051
:10374000DD310000DD310000DD310000DD31000041
:10375000DD310000DD310000DD310000DD31000031
:10376000DD3100006B410000DD310000DD31000083
:10377000DD310000DD310000DD310000DD31000011
:10378000DD310000DD310000DD310000DD31000001
:10379000DD310000DD310000DD310000DD310000F1
:1037A000B1370000342801F0748271287FF416AD1F
:1037B000002373202360286010E506F09BFE00289C
:1037C00040F3B5837748784E07F0F4FA08F038FFF5
:1037D000774908F089FF07460246336D96F8401096
:1037E0007248776415E006F085FE002840F39B835D
:1037F0006C486D4E07F0DEFAC0B286F84000032830
:1038000094BF01460021336D726C684888BF86F80A
:103810004010FDF7AFF9012369202360286064E4BC
:1038200006F02CFE06F066FE05460028F8D15D483D
:103830005D4E07F029F95B4807F026F9594807F073
:1038400023F9584807F020F9564807F01DF91F21C1
:10385000584806F079FE534807F016F91C215648DF
:1038600006F072FE706A554908F03EFF08F092FAC1
:10387000009502460B464B4807F062F9022150487A
:1038800006F062FE474807F0FFF823214D4806F096
:103890005BFEF06B494908F027FF08F07BFA0095C2
:1038A00002460B463F4807F04BF90221444806F018
:1038B0004BFE3C4807F0E8F81921434806F044FE67
:1038C000B06B08F067FA02250B46024600953548B2
:1038D00007F036F929463D4806F036FE314807F034
:1038E000D3F822213A4806F02FFEB6F8CA102D4828
:1038F00007F01EF90321374806F026FE294807F095
:10390000C3F807232360CBE406F0B8FD06F0F2FD10
:1039100005460028F8D12348234E07F0B5F8214882
:1039200007F0B2F81F4807F0AFF81E4807F0ACF8F0
:103930001C4807F0A9F81521274806F005FE19488C
:1039400007F0A2F81821254806F0FEFD2B460A22B2
:1039500096F84010134807F0ABF8124807F094F8B7
:1039600028211F4806F0F0FD706C144908F0BCFED9
:1039700008F010FA00950B4602460A4807F0E0F8F6
:1039800002210F4806F0E0FD064807F07DF81321FC
:10399000144806F0D9FD034807F076F808232360A1
:1039A0007EE400BFC089FF1FE4ADFF1F2C95FF1F01
:1039B0006F12833A84160100A416010000007A44B5
:1039C000AC140100C4160100E816010060160100E5
:1039D0000417010028170100E01E01006414010013
:1039E00080140100B014010006F048FD06F082FDCD
:1039F00005460028F8D18148814E07F045F87F48F8
:103A000007F042F87D4807F03FF87C4807F03CF8A3
:103A10007A4807F039F811217A4806F095FD774881
:103A200007F032F82821784806F08EFD7069774952
:103A300008F05AFE08F0AEF9009502460B466F48B2
:103A400007F07EF80221724806F07EFD6B4807F011
:103A50001BF816216F4806F077FDF0696B4908F0F6
:103A600043FE08F097F900950B460246634807F0BD
:103A700067F80221664806F067FD604807F004F821
:103A8000D6F8B830002B32DD1D21634806F05CFD0E
:103A9000306E08F0D5FD614908F026FE08F07AF98D
:103AA000022502460B460095544807F049F80121CB
:103AB0005B4806F049FD514806F0E6FF1F215948D2
:103AC00006F042FD706E08F0BBFD544908F00CFE94
:103AD00008F060F9009502460B46484807F030F8B8
:103AE00001214F4806F030FD444806F0CDFF11217A
:103AF0004D4806F029FDD6F8B830072B00F2F987BB
:103B0000DFE813F076087B0871086C086708620824
:103B10005D08F30706F0B2FC06F0ECFC0028F9D1D2
:103B20003648374E06F0B0FF344806F0ADFF334854
:103B300006F0AAFF314806F0A7FF304806F0A4FFC0
:103B40001F213A4806F000FD2C4806F09DFF1E217B
:103B5000374806F0F9FC294806F096FF1A21354847
:103B600006F0F2FCD6F88030022B01F06B81032BBB
:103B700001F05F81012B01F0538109212E4806F0ED
:103B8000E3FC1E4806F080FF14212C48DFF870800B
:103B900006F0DAFCF16F194806F0CAFF174806F084
:103BA00073FF1C21264806F0CFFCD6F8841013487A
:103BB00006F0BEFF114806F067FF1C21214806F001
:103BC000C3FCD6F8B4100D4806F0B2FF0B4806F05F
:103BD0005BFFD6F8805025F00207012F01F0B0807E
:103BE000022D01F04E811321174806F0ADFC034869
:103BF00006F04AFF02232360FFF752BBC089FF1F74
:103C0000E4ADFF1F841E0100C414010000007A44CB
:103C1000AC140100F014010008150100CDCCCC3D1E
:103C20005C1A010028150100481501001C1901004B
:103C30003C1901005C190100D4190100E0190100D0
:103C4000F8190100181A0100B014010006F016FC62
:103C500006F050FC0028F9D1B74806F015FFB64829
:103C600006F012FFB44806F00FFFB34806F00CFF51
:103C7000B14806F009FF1321B04806F065FCAE48D4
:103C800006F002FF0D21AE4806F05EFCAA4806F0E1
:103C9000FBFE0F21AB4806F057FCAB4BA64819685A
:103CA00006F046FFA44806F0EFFE1321A74806F0F1
:103CB0004BFCA74BA048196806F03AFF9E4806F057
:103CC000E3FE1221A34806F03FFCA34B9A48196873
:103CD00006F02EFF984806F0D7FE11219F4806F007
:103CE00033FC9F4B9448196806F022FF924806F077
:103CF000CBFE0E219B4806F027FC9B4B8E48D3F849
:103D0000A81006F015FF8C4806F0BEFE1921974852
:103D100006F01AFC964B8848196806F009FF864899
:103D200006F0B2FE1121934806F00EFC924B824839
:103D3000196806F0FDFE804806F0A6FE10218F48A7
:103D400006F002FC8E4B7C48196806F0F1FE7A48BA
:103D500006F09AFE1C218B4806F0F6FB8A4B76484B
:103D6000196806F0E5FE744806F08EFE13218748B8
:103D700006F0EAFB704806F087FE04232360FFF795
:103D80008FBA06F0B7FB00287FF7D4AB6A48764EAF
:103D900007F010F801226B23C6F8980022602B6010
:103DA00001E006F06BFB06F0A5FB0028F9D16248A4
:103DB0006D4D06F069FE604806F066FE5E4806F04E
:103DC00063FE5D4806F060FE5B4806F05DFE212163
:103DD0006F4806F0B9FB584806F056FE15216D48AD
:103DE00006F0B2FBD6F89810534806F0A1FE022167
:103DF000694806F0A9FB504806F046FE1E216748B8
:103E000006F0A2FBD6F8A0104B4806F091FE032165
:103E1000634806F099FB484806F036FE1E216148CB
:103E200006F092FBD6F89C10434806F081FE42480B
:103E300006F02AFE1D215C4806F086FBD6F8AC1081
:103E40003D4806F075FE3C4806F01EFE1E21574810
:103E500006F07AFBD6F8B010374806F069FE36480F
:103E600006F012FED6F8A830012B01F01F800523C2
:103E70002360FFF715BA06F03DFB00287FF75AAB29
:103E80002D48394E06F096FF3B4BC6F8B000032292
:103E90001A60FDF7E9FC01226B2322602B6082E7A8
:103EA000314E96F8C930B3FA83F35B0901216B22D6
:103EB00086F8C93021602A6075E706F01BFB0028F0
:103EC0007FF738AB1C48284E06F074FF01226B23A5
:103ED000C6F89C0022602B6065E706F00BFB00280B
:103EE0007FF728AB1448204E06F064FF224BC6F83B
:103EF000AC000222CCE706F0FDFA00287FF71AABEF
:103F00000D48194E06F056FF01226B23C6F8A0009B
:103F100022602B6047E7184A002373201360236058
:103F20002860FFF75BB9104E96F8400067E42368FD
:103F30002868FFF7B8B800BFC089FF1F3818010014
:103F40004C1801005C18010048AFFF1F6C180100FD
:103F5000A894FF1F8018010014AFFF1F94180100E0
:103F6000DCADFF1FA8180100E4ADFF1FB818010069
:103F70008094FF1FD4180100A494FF1FE8180100CB
:103F80007494FF1FFC1801001C88FF1FB01401006F
:103F90002C17010050170100F415010068170100EB
:103FA000EC12010088170100A8170100C8170100D2
:103FB00006F0A0FA00287FF72DAABA4806F0FAFE0C
:103FC000B94A00EB80004300116E1BB28B42A2F88D
:103FD000D03001DDA2F8D0100123652023602860D5
:103FE000FFF783B806F086FA00287FF713AAAD48DA
:103FF000AD4E06F0DFFE08F023FBAC4908F028FCCC
:1040000065230122706122602B601846FFF76DB8AE
:1040100006F070FA00287FF7FDA9A248A24E06F02C
:10402000C9FE08F00DFBA14908F012FC652301222E
:10403000F06122602B601846FFF757B806F05AFA75
:1040400000287FF7E7A99748974E06F0B3FE00EBEC
:104050008000430001226520336622602860FFF75C
:1040600044B806F047FA00287FF7D4A98D488E4E51
:1040700006F0A0FE00EB800043000122652073667D
:1040800022602860FFF731B8874AD2F8B830013390
:10409000072BC8BF0023C2F8B8309DE706F02AFA04
:1040A00000287FF7B7A97F487F4E06F083FE65237F
:1040B0000122C6F8BC0022602B601846FFF715B835
:1040C000794B93F8C820002A00F0F585002283F888
:1040D000C82081E706F00EFA00287FF79BA97148F7
:1040E000714E06F067FE08F0ABFAF76A30633946A6
:1040F00008F098FC00283FF46FAF37636CE76C4A18
:104100001368B3FA83F35B09012164201360216013
:104110002860FEF7EABF674AF2E7674A674F13680D
:10412000002B0CBF012300234FF00100136020601F
:1041300040F09186034664222A606420FEF7B0BFF7
:104140005F4ADDE75F4ADBE70123236006F0D2F92F
:10415000002800F3B5855C4B1A68042AC4BF02220C
:104160001A6064232B602368E7E7584AC8E70123F5
:1041700057482360FCF794FB564A23681060DAE73F
:10418000554ABDE7484ED6F8A830B3FA83F35B0929
:1041900001226420C6F8A83022602860FEF7A5BF7F
:1041A000414EF36FB3FA83F35B0901226320F36797
:1041B00022602860FEF799BF0123236006F09AF978
:1041C000002807DD3748384E06F0F4FD08F038FACD
:1041D000C6F89400632028602368FEF764BF0123BB
:1041E000236006F087F90028F4DD2E482E4E06F0F5
:1041F000E1FD08F025FAC6F89000EBE70123236003
:1042000006F078F90028E5DD2648274E06F0D2FDB5
:10421000A6F8C200DEE7244AD2F8D4300133042BDA
:10422000C8BF0123C2F8D430012363202360286073
:10423000FEF75BBF0123236006F05CF90028F3DD85
:104240001848194E06F0B6FDC6F88C00ECE7FEF7EC
:10425000CBFB23682868FEF723BF134AD2F88030CF
:104260000133032BC8BF0023C2F88030DCE70E4EB9
:10427000D6F88430B3FA83F35B0901226320C6F8D1
:10428000843022602860FEF730BF0123236006F0EF
:1042900031F90028C8DD0348034E06F08BFDC6F84F
:1042A000B400C1E7C089FF1FE4ADFF1F00007A44DE
:1042B00048AFFF1FA894FF1F14AFFF1F54AFFF1F8D
:1042C000DCADFF1F7494FF1F1C88FF1F30AFFF1F62
:1042D0002C95FF1F8094FF1FA494FF1F06F00AF97E
:1042E00000280DDD1748184E06F064FD08F0A8F907
:1042F000164908F0ADFA01226223306222602B6079
:1043000006F0F8F800280EDD0E480F4E06F052FDBC
:1043100008F096F90D4908F09BFA01226223C6F8CD
:10432000C40022602B6006F0E5F8002840F3818489
:104330000448054E06F03EFD01226223F06622602D
:104340002B6007E0C089FF1FE4ADFF1F00007A4427
:1043500006F094F806F0CEF805460028F8D1C248D9
:1043600006F092FBC04806F08FFBBF4806F08CFBBE
:10437000BD4806F089FBBC4806F086FB1521BB480A
:1043800006F0E2F8B84806F07FFB1421B84806F0C2
:10439000DBF8B54806F078FB1B21B64806F0D4F8E8
:1043A000B14806F071FB1321B34806F0CDF8AE48D2
:1043B00006F06AFBAC4806F067FBAB4806F064FB0E
:1043C0002021AE4806F0C0F8F068AD4908F08CF93D
:1043D00007F0E0FC009502460B46A34806F0B0FB50
:1043E0000221A84806F0B0F80221A74806F0ACF870
:1043F0009D4806F049FB2121A44806F0A5F8306944
:104400009F4908F071F907F0C5FC009502460B467C
:10441000954806F095FB02219A4806F095F802218E
:10442000994806F091F8904806F02EFB1F21984815
:1044300006F08AF8B06A07F0ADFC022702460B4688
:104440000097894806F07CFB0121924806F07CF831
:1044500039468D4806F078F8834806F015FB202190
:104460008D4806F071F8F06A07F094FC0097024658
:104470000B467D4806F064FB0121864806F064F88F
:104480003946814806F060F8774806F0FDFA2321A6
:10449000824806F059F8B06C794908F025F907F020
:1044A00079FC009502460B466F4806F049FB3946F9
:1044B000744806F049F83946734806F045F86A48EA
:1044C00006F0E2FA1F21764806F03EF8F06C6C49DF
:1044D00008F00AF907F05EFC009502460B466248B8
:1044E00006F02EFB3946674806F02EF83946664836
:1044F00006F02AF85C4806F0C7FA1921694806F068
:1045000023F8F16D584806F013FB3946664806F06B
:104510001BF839465C4806F017F8534806F0B4FA21
:104520001821624806F010F8B06E08F089F860496A
:1045300008F0DAF807F02EFC009702460B464A48CE
:1045400006F0FEFA01215B4805F0FEFF39464E48B1
:1045500005F0FAFF444806F097FA2B21564805F07B
:10456000F3FFB069464908F0BFF807F013FC009567
:1045700002460B463C4806F0E3FA3946414805F04E
:10458000E3FF3946404805F0DFFF374806F07CFA84
:104590001F214A4805F0D8FFB16D334806F0C8FA2C
:1045A0003946394805F0D0FF2F4806F06DFA202132
:1045B000434805F0C9FF716D2B4806F0B9FA39463A
:1045C000314805F0C1FF284806F05EFA10213D4849
:1045D00005F0BAFFF16E244806F0AAFA39462948D8
:1045E00005F0B2FF3946284805F0AEFF1E4806F038
:1045F0004BFA1321344805F0A7FF316F1A4806F033
:1046000097FA0121314805F09FFF39461E4805F011
:104610009BFF154806F038FA10212D4805F094FF4D
:10462000716F114806F084FA3946164805F08CFF80
:104630003946154805F088FF0B4806F025FA142185
:10464000244805F081FFB16F074806F071FA012197
:104650001E4805F079FF39460B4805F075FF024802
:1046600006F012FA162137E0C089FF1F401B010037
:10467000581B0100701B0100B01401008C1B0100CD
:1046800000007A44AC140100881F0100B01B010037
:10469000D41B0100F41B0100F81B01001C1C0100CD
:1046A000401C0100601C01007C1C0100801C0100FA
:1046B000CDCCCC3D5C1A01009C1C0100C81C010043
:1046C000E81C01000C1D0100201D0100341D01002B
:1046D000381D01004C1D0100BF4805F035FF306A50
:1046E000BE4908F001F807F055FB009502460B465D
:1046F000BB4806F025FA3946BA4805F025FF394689
:10470000B94805F021FFB64806F0BEF92421B748A4
:1047100005F01AFFD6F8C400B04907F0E5FF07F02E
:1047200039FB009502460B46AD4806F009FA3946BA
:10473000AC4805F009FF3946AB4805F005FFA8482D
:1047400006F0A2F92B21AA4805F0FEFE706B07F0D7
:1047500021FB009702460B46A14806F0F1F9012122
:10476000A44805F0F1FE39469F4805F0EDFE9C484F
:1047700006F08AF92721A04805F0E6FED6F8CC001D
:10478000964907F0B1FF07F005FB009502460B467E
:10479000934806F0D5F93946924805F0D5FE904881
:1047A00006F072F91721954805F0CEFE2B460A2235
:1047B00096F8D8108A4806F07BF9894806F064F923
:1047C00013218F4805F0C0FE854806F05DF90323EC
:1047D0002360FEF765BD05F08DFE002840F32982B9
:1047E0007F48884E06F0E6FA01226223B067226015
:1047F0002B60AFE5FCF7E8FE02217B48814E05F017
:10480000A3FE774806F040F90221774805F09CFEA8
:10481000734806F039F90221734805F095FE704897
:1048200006F032F91721784805F08EFE6C4806F044
:104830002BF902216C4805F087FE694806F024F93F
:104840000122622322602B6084E505F053FE0028DC
:1048500040F3EF8162486B4E06F0ACFA00EB80004B
:10486000430001216222B36621602A6072E505F0EF
:1048700041FE002840F3DD815948624E06F09AFA65
:1048800007F0DEFE554907F0E3FF01226223B06125
:1048900022602B605EE505F02DFE002840F3C98103
:1048A0004F48584E06F086FA07F0CAFE4B4907F00B
:1048B000CFFF01226223F06022602B604AE505F001
:1048C00019FE002840F3B58145484E4E06F072FAB5
:1048D00007F0B6FE414907F0BBFF012262233061B9
:1048E00022602B6036E505F005FE002840F3A1812B
:1048F0003B48444E06F05EFA07F0A2FE0122622316
:10490000B06222602B6025E505F0F4FD002840F33D
:10491000908133483B4E06F04DFA07F091FE01229C
:104920006223F06222602B6014E505F0E3FD0028AD
:1049300040F37F812A48334E06F03CFA07F080FEB0
:10494000264907F085FF01226223B06422602B60B4
:1049500000E505F0CFFD002840F36B812048294E8B
:1049600006F028FA07F06CFE1C4907F071FF0122DF
:10497000034601462548F3642260FBF761FF236884
:104980006222012B2A607EF48BACE3E405F0B2FDD9
:10499000002840F34E8112481A4E06F00BFA01220D
:1049A0006223F06522602B60D4E405F0A3FD0028AB
:1049B00040F33F810A48134E06F0FCF901226223BE
:1049C00086F8D80022602B60C4E4002273232260A2
:1049D0002B60FEF70BBC00BF641D010000007A4491
:1049E000C089FF1FAC140100881F01007C1D01005D
:1049F000A41D0100F41B0100D01D0100F81D0100E1
:104A0000B0140100E4ADFF1F401401002C95FF1FFE
:104A1000AF4BB048B04E022101271F6005F094FD56
:104A2000AE4806F031F80B21AD4805F08DFD0221AE
:104A3000A84805F089FDA94806F026F862232760FA
:104A40002B6087E405F056FD002840F3F280A34870
:104A5000A14E06F0AFF907F0F3FD01226223706367
:104A600022602B6076E405F045FD002840F3E180EC
:104A70009A48994E06F09EF907F0E2FD994907F031
:104A8000E7FE01226223C6F8CC0022602B6061E4BD
:104A900005F030FD002840F3CC8090488E4E06F0A3
:104AA00089F901226223706522602B6052E405F0CF
:104AB00021FD002840F3BD808848874E06F07AF932
:104AC00001226223306722602B6043E405F012FD6F
:104AD000002840F3AE8081487F4E06F06BF901223A
:104AE0006223706722602B6034E414217E4805F055
:104AF0002BFD7A48784D05F0C7FFD6F8B830002B6B
:104B000012DD1821794805F01FFDD5F8BC10734857
:104B100006F00EF80221764805F016FD6F4805F004
:104B2000B3FF6E4805F0B0FF1B21724805F00CFD85
:104B300096F8C830012B15BF122114216E486F481A
:104B400005F002FD654805F09FFF1F216C4805F048
:104B5000FBFC306B07F01EF9022502460B46009560
:104B60005E4805F0EDFF2946664805F0EDFC5B4820
:104B700005F08AFF1E21644805F0E6FCB6F9D00076
:104B800007F05EFD614907F0AFFD07F003F90095FE
:104B90000B460246514805F0D3FF01215C4805F061
:104BA000D3FC4E4805F070FF13215A4805F0CCFCA9
:104BB0004A4805F069FF06232360FEF771BB042114
:104BC000554805F0C1FC94E70B21544805F0BCFCA6
:104BD0008FE70D21524805F0B7FC8AE70D215148B7
:104BE00005F0B2FC85E70C214F4805F0ADFC80E7ED
:104BF0000D214E4805F0A8FC7BE70C214C4805F040
:104C0000A3FC76E7DC220021334803F0AFFD2868DF
:104C1000484AA0F1730001210023B0FA80F0400956
:104C200011602360FEF7E0BA04F04CFF2368FEF742
:104C3000D5BA23682868012B7EF4D0AAFEF755BAAE
:104C400005F058FC00287EF753AB2448224E06F0AE
:104C5000B1F807F0F5FC61230122B06322602B60FC
:104C60001846FEF742BA05F045FC00287EF740AB37
:104C70001A48194E06F09EF807F0E2FC2E4907F09C
:104C800033FD61230122706222602B601846FEF71B
:104C90002CBA05F02FFC00287EF72AAB0F480E4EE9
:104CA00006F088F861230122A6F8CA0022602B6072
:104CB0001846FEF71ABA012283F8C820FFF78CB90C
:104CC000064806F077F81D4B02461860FFF745BA14
:104CD00010AFFF1F881F0100E4ADFF1FC089FF1F39
:104CE0005814010000007A44C0150100D8150100D5
:104CF000F4150100F8150100141601002816010032
:104D0000401601006016010064160100CDCCCC3DB8
:104D10005C1A0100B0140100B8150100AC150100C7
:104D20009C1501008C1501007C1501005C1501002B
:104D30006C1501000088FF1F6F12833A1C88FF1F4B
:104D40001C21704805F000FC6F49D8F8940007F06A
:104D5000CBFC07F01FF8009702460B466B4805F0A6
:104D6000EFFE05216A4805F0EFFB684805F08CFE70
:104D7000D8F88050012D19D11D21664805F0E4FBBB
:104D80006149D8F8900007F0AFFC07F003F80095F0
:104D900002460B465D4805F0D3FE05215C4805F050
:104DA000D3FB5A4805F070FED8F8805025F0020376
:104DB000012B7EF415AF1C215748584F05F0C4FB5A
:104DC000B6F8C210514805F0B3FE0321544805F06F
:104DD000BBFB4E4805F058FED6F88050012D7EF4FE
:104DE000FFAE1F214F4805F0AFFBD7F88C0007F04E
:104DF00027FC4D4907F078FC06F0CCFF022502465F
:104E00000B460095414805F09BFE2946474805F0B2
:104E10009BFB3E4805F038FED7F88050FEF7E0BE19
:104E20001E21434805F090FB384805F02DFEFEF7A3
:104E3000ABBE20213F4805F087FB344805F024FE37
:104E4000FEF7A2BE17213C4805F07EFB2F4805F077
:104E50001BFEFEF799BE394B002631460B201E6023
:104E600003F0DCFF31460C2003F0D8FF314614205C
:104E700003F0D4FF3146152003F0D0FF3B68FFF765
:104E80005AB917212E4805F05FFBD6F8D430012B14
:104E900025D0022B1DD0032B27D0042B7EF4A3AEEC
:104EA00028491A48FCF77EFBFEF79DBE20212648C4
:104EB00005F04AFB95F8C9302BB924491348FCF793
:104EC00071FBFEF7D4BF22491048FCF76BFBFEF7DD
:104ED000CEBF20490D48FCF765FBFEF784BE1E4996
:104EE0000A48FCF75FFBFEF77EBE1C490748FCF74B
:104EF00059FBFEF778BE094EFEF755BF074EFFF788
:104F000029BA00BF381A0100CDCCCC3DC089FF1FA3
:104F1000581A0100601A0100801A0100E4ADFF1F59
:104F2000A01A0100A41A01006F12833AC41A0100EA
:104F30007819010098190100BC1901002495FF1F80
:104F4000C81A0100241B0100E81701000C18010019
:104F500018180100F81A0100E01A0100101B0100E6
:104F600010B5124C124A2368101D12F8011F90420E
:104F700041EA0323F9D10F4A236003F10043136090
:104F80000D4BD3F88030022B08D00C4B1B68012B43
:104F900000D010BDBDE81040FCF7EEBA1068084C18
:104FA00007F04EFB2060FCF749FFEEE738AFFF1F2C
:104FB00033ADFF1F1895FF1FE4ADFF1F48AFFF1F64
:104FC0002CAFFF1F70B51E4A1E4C507A937A216891
:104FD000D27A1D4E1D4D43EA002342EA03230129E4
:104FE00033602B6019D01846194BD3F88030A0F5E8
:104FF0000000022B28601BD02368012B00D070BD5D
:10500000144805F041FD2968124805F091FD03217F
:105010001148BDE8704005F097BA0E4805F034FD20
:105020000023102229680B4805F042FD2868DBE7C1
:1050300007F006FB094B1860FCF700FFDCE700BF38
:105040002CADFF1F48AFFF1F38AFFF1F1895FF1F84
:10505000E4ADFF1FC089FF1F5C1101002CAFFF1FD3
:1050600008B5134B187BDB7AFF2813D040B243EA14
:105070000020104B104AD3F8803000EB800000EB8A
:1050800080008000022B10600BD00C4B1B68012BA2
:1050900003D008BDFF2BE9D1FBE7BDE80840FCF7D2
:1050A0006BBA07F0CDFA064B1860FCF7C7FEECE7C9
:1050B0002CADFF1FE4ADFF1F1895FF1F48AFFF1F6A
:1050C0002CAFFF1FF0B5734D734C744883B0294665
:1050D00002F00AFBD4F88030022B10D02B68704C01
:1050E0000E2B07D822686B496E48012A18BF002290
:1050F000FBF700FC2368012B4BD003B0F0BDD4F8C4
:10510000D4202B68012A7BD0022A13D0032A1FD077
:10511000042AE4D1D90064491A4648BFC3F31122D6
:105120008A42DCD12A7A5B4C002AD8D1FFF798FF5B
:105130002368D4E740F2C132934203D040F2C23236
:105140009342CCD1FFF73EFFD4F8D4202B68DDE7A3
:1051500040F22252934200F08C8040F2235293425C
:1051600073D040F221529342B9D1EA7AAF7A6B7B85
:10517000D4F88010287B4D4C464E120442EA076258
:10518000134343EA002002292060434C77D0444C6B
:10519000B0E7474B47481B6801930A220023019957
:1051A00005F086FC2A683B4B002ADB7946DB424946
:1051B000424808F0EDFB414808F022FC01463F4818
:1051C00005F0C2F92C68334B14F0804427D1DB7909
:1051D0008BB12B193A491A7A384808F0D9FB37486D
:1051E00008F00EFC0146354805F0AEF90134EB79C4
:1051F000E4B2A342EDD82F4805F046FC03B0F0BD61
:1052000040F2C13293422ED040F2C23293427FF438
:1052100066AFFFF7A5FED4F8D4202B6874E7294DBC
:10522000264C0FCD0FC495E8030044F8040B20462C
:1052300020F81419152105F087F9DCE722491F48E9
:1052400022F0604208F0A4FBB5E7E97AAB7A6A7B0A
:105250002E7B1E48124C090441EA0363134343EAC0
:105260000623036046E7FFF7ADFED4F8D4202B6891
:105270004AE7E97AAB7A6A7B2E7B1548EAE707F0C2
:10528000DFF9144B1860FCF7D9FDD4F8D42033684B
:105290003EE700BF2CADFF1FE4ADFF1F5CAFFF1F5B
:1052A00048AFFF1F2C95FF1F14F201001895FF1F38
:1052B00004B1FF1FC089FF1F441F010048ADFF1F3D
:1052C000701F0100581F01001C1F0100DCAEFF1FF2
:1052D000C8ADFF1F2CAFFF1F974B1B78052B50D07D
:1052E0002DE9F04F954C964E964DA26E236E964842
:1052F000326083B02B60FBF7BFFCE16A07F092FBE2
:1053000010B1B4F9D0302B608F48FBF7B3FCA16A21
:1053100007F0A6FB10B1002333602B608A48FBF72F
:10532000FBFBE16807F09CFB08B100232B6086487B
:10533000FBF7F2FBE16807F093FB08B100232B6059
:1053400081487E4FFBF7C0FB216907F06BFBF0B192
:1053500000233360B4F9D0202B68784FDFF8E48164
:105360009A426FDB3368764A002BAFBF2B682B68FD
:1053700000211160002B01DA00232B6003B0BDE88F
:10538000F08F6F496F4A00230B60136070476E48BF
:10539000FBF79AFBB96907F045FB0028D8D13368C1
:1053A000DFF89C91002BD5DD6748FBF763FC796B38
:1053B00007F056FB002840F092806348DFF87C81BC
:1053C000FBF782FBD4F8C4100746A06907F084F805
:1053D0000146384607F026FB0028BBD0306807F0AE
:1053E0002FF982465848FBF76FFB8346D8F86800D0
:1053F000D8F8187007F024F939468146584607F066
:1054000069F849468346002007F064F8014658468B
:1054100007F06AF9D8F8C4108346384607F05CF8FC
:10542000394607F057F80146584607F011FA494641
:1054300007F052F80146504607F04CF807F01AFB07
:10544000306087E74048FBF717FC396B07F0EAFA52
:1054500000287DD13D4B3C481B68384F012B00F0A4
:10546000AE80FBF759FBE1698046606907F032F8CE
:105470000146404607F0F4FA00283FF473AF28686D
:1054800007F0DEF881463048FBF746FB7C69F96996
:105490008246204607F01EF87B6E8046386EC01AA2
:1054A00007F0CEF841460746504607F013F801468C
:1054B000384607F019F941460746204607F00AF832
:1054C0000146384607F0C4F9002107F005F8014607
:1054D000484606F0FFFF07F0CDFA286042E7D9F80A
:1054E000000007F0ADF882461748FBF7C3FB0190B8
:1054F000B86ED7F8348007F0A3F8019B8346414685
:10550000184606F0E7FF0146584607F0EDF8414619
:105510008346B86A06F0DEFF0146584607F098F960
:10552000002106F0D9FF0146504606F0D3FF07F0F0
:10553000A1FAC9F8000040E7D8ADFF1FE4ADFF1F96
:1055400034AFFF1FA094FF1F2C95FF1FB494FF1FC3
:10555000D8F8000007F074F883463B48FBF78CFB53
:10556000B7F9D0200190386ED7F82CA0801A07F038
:1055700067F8019B81465146184606F0ABFF494645
:105580000190002006F0A6FF019B0146184607F097
:10559000ABF851460190386B06F09CFF019B014629
:1055A000184607F055F9494606F096FF0146584659
:1055B00006F090FF07F05EFAC8F800004AE7FBF734
:1055C000ABFAE1698046206A06F084FF0146404656
:1055D00007F046FA00283FF4C5AE286807F030F817
:1055E00082461948FBF798FAD7F82080F969834674
:1055F000404606F06FFF8146786E07F021F80446BA
:10560000386E07F01DF8214606F064FF494607464C
:10561000584606F05FFF0146384607F065F84946F0
:105620000746404606F056FF0146384607F010F997
:10563000214606F051FF0146504606F04BFF07F0A9
:1056400019FA28608EE600BF2C95FF1F08B5274881
:1056500005F01AFA0721264804F076FF112003F01E
:10566000E3FB0621F8B1234804F06EFF122003F09B
:10567000DBFB062100B3204804F066FF122003F094
:10568000D3FB062108B31D4804F05EFF132003F08E
:10569000CBFB062110BB1A4804F056FF1348BDE8A7
:1056A000084005F0F1B9174804F04EFF122003F04E
:1056B000BBFB06210028DED1134804F045FF122071
:1056C00003F0B2FB06210028DDD1104804F03CFFB6
:1056D000132003F0A9FB06210028DCD00C4804F0BD
:1056E00033FF0248BDE8084005F0CEB9C089FF1F6E
:1056F0007C1F0100841F0100941F0100A41F0100F2
:10570000BC1F01008C1F01009C1F0100AC1F010089
:10571000B41F010010B5254C2368042B27DC0121A0
:105720000B2003F07BFB01210C2003F077FB012110
:10573000142003F073FB0121152003F06FFBFF2100
:10574000162003F0EBF9FF21172003F0E7F9FF2102
:10575000052003F0E3F9FF21062003F0DFF92368B9
:1057600001330A2B2360C4BF0023236010BD002136
:105770000B2003F053FB00210C2003F04FFB002112
:10578000142003F04BFB0021152003F047FB002100
:10579000162003F0C3F90021172003F0BFF9002100
:1057A000052003F0BBF90021D6E700BF7C94FF1F62
:1057B000F8B50C4E96F8D83093B101240A4D27461F
:1057C000FF23094909482B722C60EF7102F08EF813
:1057D000012003F05FFB96F8D8300134A342EFDAE2
:1057E000F8BD00BFE4ADFF1F8C94FF1F5CAFFF1F2F
:1057F00030B5092183B0AE4803F06EFE222003F0DD
:10580000F9FDAC4BD3F8A830012BAB4B1B7809D07A
:10581000052B10D8DFE813F02D0132013C014101C6
:1058200037010B00002B00F03D81052B03D1072130
:10583000A24803F051FE222003F0DCFDFF2003F01C
:10584000D9FDFF2003F0D6FD9D4CFF2003F0D2FDD3
:1058500008219C4803F040FE21689B4805F068F948
:10586000FF2003F0C7FDFF2003F0C4FDFF2003F07D
:10587000C1FD0921954803F02FFE2168924805F0EB
:1058800057F9FF2003F0B6FDFF2003F0B3FDFF2022
:1058900003F0B0FD0C218E4803F01EFE8D4B8E49A7
:1058A000186806F0D5FF06F075FA002402460B468C
:1058B0000094854805F044F9FF2003F09BFDFF208C
:1058C00003F098FDFF2003F095FD0921834803F0C4
:1058D00003FE8348FBF774F906F05CFA0094024675
:1058E0000B46794805F02CF9FF2003F083FDFF20DB
:1058F00003F080FDFF2003F07DFD0C21794803F0CB
:10590000EBFD7748FBF7B8F906F044FA009402463D
:105910000B466D4805F014F9FF2003F06BFDFF20E6
:1059200003F068FDFF2003F065FD0D216E4803F0D4
:10593000D3FD6B48FBF79EF906F02CFA0094024663
:105940000B46614805F0FCF8FF2003F053FDFF20F3
:1059500003F050FDFF2003F04DFD0921634803F0E3
:10596000BBFD5F48FBF7FEF8614906F0BDFE06F09F
:1059700011FA009402460B46534805F0E1F8FF2067
:1059800003F038FDFF2003F035FDFF2003F032FD6A
:105990000C21584803F0A0FD5148FBF795F85649F3
:1059A00006F0A2FE06F0F6F9009402460B464648C1
:1059B00005F0C6F8FF2003F01DFDFF2003F01AFDDF
:1059C000FF2003F017FD0D214C4803F085FD4448EE
:1059D000FBF7A2F8484906F087FE06F0DBF90094D1
:1059E00002460B46384805F0ABF8FF2003F002FDF5
:1059F000FF2003F0FFFCFF2003F0FCFC09214048DE
:105A000003F06AFD3F4B3048196805F091F8FF201C
:105A100003F0F0FCFF2003F0EDFCFF2003F0EAFCB4
:105A20000E21394803F058FD2D48FBF775F805465F
:105A30002B48FBF749F80146284606F04BFD2E4956
:105A400006F052FE06F0A6F9009402460B461E48E8
:105A500005F076F8FF2003F0CDFCFF2003F0CAFC30
:105A6000FF2003F0C7FCFF2003B0BDE8304003F087
:105A7000C1BC0621254803F02FFDDCE607212448A0
:105A800003F02AFDD7E60B21224803F025FDD2E6DC
:105A90000721214803F020FDCDE608211F4803F02F
:105AA0001BFDC8E608211E4803F016FDC3E600BF33
:105AB000C41F0100E4ADFF1FD8ADFF1F701201002D
:105AC0000888FF1FDC1F01009489FF1FE81F0100E9
:105AD000F41F0100D4ADFF1F0000C84204200100E4
